S0100000506F6E6747616D652E7372656306
S11300000C94B2020C94CF020C94CF020C94CF0245
S11300100C94CF020C94CF020C94CF020C94CF0218
S11300200C94CF020C94CF020C94CF020C94CF0208
S11300300C94CF020C94CF020C94CF020C94CF02F8
S11300400C94CF020C94CF020C94CF020C94CF02E8
S11300500C94CF020C94CF020C94CF020C94CF02D8
S11300600C94CF020C94CF0200000000007CDAF262
S1130070DA7C7CD6F2D67C387C3E7C38183C7E3CDC
S11300801838EABEEA38387AFE7A3800183C180084
S1130090FFE7C3E7FF0018241800FFE7DBE7FF0CC6
S11300A0125C607064949E946402FEA0A0E002FE60
S11300B0A0A4FC5A3CE73C5AFE7C3838101038386F
S11300C07CFE2844FE4428FAFA00FAFA6090FE8086
S11300D0FE006691A95606060606062945FF45292F
S11300E010207E201008047E0408101054381010CC
S11300F038541010780808080830783078300C1C10
S11301007C1C0C60707C706000000000000000FA31
S1130110000000E000E00028FE28FE282454FE54DD
S113012048C4C81026466C926A040A0010E0C00055
S1130130003844820000824438005438FE38541099
S1130140107C101000010E0C001010101010000094
S113015006060004081020407C8A92A27C0042FE1D
S113016002004E92929262848292B2CC182848FE87
S113017008E4A2A2A29C3C5292928C82848890E0D1
S11301806C9292926C629292947800002800000023
S1130190022C0000001028448228282828280082E5
S11301A044281040809A90607C82BA9A723E4888B3
S11301B0483EFE9292926C7C82828244FE828282CB
S11301C07CFE92929282FE909090807C82828ACE73
S11301D0FE101010FE0082FE8200040282FC80FEEB
S11301E010284482FE02020202FE403840FEFE2035
S11301F01008FE7C8282827CFE909090607C828AD1
S1130200847AFE90989462649292924CC080FE80AC
S1130210C0FC020202FCF8040204F8FC021C02FC0A
S1130220C6281028C6C0201E20C0869A92B2C200DA
S1130230FE828282402010080400828282FE2040D6
S1130240804020020202020200C0E01000042A2AB8
S11302501E02FE1422221C1C222222141C222214FE
S1130260FE1C2A2A2A1800107E9040182525391EC3
S1130270FE1020201E0022BE0200040202BC00FE6A
S1130280081422000082FE02003E201E201E3E10A2
S113029020201E1C2222221C3F1824241818242447
S11302A0183F3E10202010122A2A2A242020FC2243
S11302B0243C0202043E38040204383C020C023C92
S11302C02214081422320909093E22262A32220065
S11302D0106C82000000EE000000826C1000408070
S11302E04020403C64C4643C78858586485C0202B6
S11302F0045E1C2A2AAA9A84AAAA9E82842A2A1EF6
S11303008284AA2A1E02042AAA9E0230784A4E48EF
S11303109CAAAAAA9A9C2A2A2A9A9CAA2A2A1A003D
S113032000A23E820040A2BE420080A23E020F9480
S113033024940F0F14A4140F3E2AAAA200042A2AFC
S11303403E2A3E5090FE924C9292924C4C121212C3
S11303504C4C5212120C5C8282845E5C4202041E7B
S113036000B90505BE9C2222229CBC020202BC3CB0
S113037024FF2424127E92C266D4F43FF4D4FF9066
S1130380946F0403117E90C0042A2A9E82000022E6
S1130390BE820C1212524C1C0202445E005E50508B
S11303A04EBEB0988CBE649494F414649494946493
S11303B00C12B202041C10101010101010101CF4B7
S11303C00813355DF408142C5F0000DE00001028CB
S11303D054284444285428105500AA005555AA55B9
S11303E0AA55AA55AA55AA000000FF00080808FF4C
S11303F000282828FF000808FF00FF08080F080F3E
S11304002828283F002828EF00FF0000FF00FF28CD
S1130410282F203F2828E808F80808F808F8282892
S113042028F8000808080F00000000F80808080869
S1130430F8080808080F08000000FF080808080862
S113044008080808FF08000000FF280000FF00FF5C
S11304500000F808E800003F202F2828E808E828D2
S1130460282F202F0000FF00EF28282828282828DC
S1130470EF00EF282828E8280808F808F828282892
S11304802F2808080F080F0000F808F8000000F8EB
S1130490280000003F2800000F080F0808FF08FF8D
S11304A0282828FF28080808F8000000000F08FF83
S11304B0FFFFFFFF0F0F0F0F0FFFFFFF00000000F4
S11304C000FFFFF0F0F0F0F01C22221C223E5454F6
S11304D07C287E40406060407E407E40C6AA928276
S11304E0C61C22223C20027E04780460407E4040E8
S11304F099A5E7A5993854925438324E804E320C5F
S113050052B2B20C0C121E120C3D465A62BC7C92C2
S11305109292007E8080807E54545454542222FA55
S11305202222028A5222020222528A020000FF8000
S1130530C00701FF00001010D6D6106C486C246C64
S113054060F090F060000018180000000808000C2B
S113055002FF808000F88080780098B8E848003C6A
S11305603C3C3C0011241FBECFEFD8E0DEBFCDBF22
S113057015E0A0E0B1E0E0ECF8E102C005900D92D6
S1130580A432B107D9F725E0A4E2B5E001C01D9279
S1130590AC32B207E1F70E949F060C945E0C0C94F7
S11305A000005C9827E030E090E05D98AC01022EFA
S11305B002C0559547950A94E2F740FF02C05E9A3F
S11305C001C05E985D9A2150310978F70895569AD2
S11305D0559A549A539A529A5A985B982FE986E8F6
S11305E091E0215080409040E1F700C000005B9A08
S11305F083EA0E94D10280EA0E94D10280EC0E9428
S1130600D10280E40E94D1028CE20E94D10283EDE7
S113061090E30197F1F700C000008EE20E94D1023E
S113062083ED90E30197F1F700C000008FE20E9490
S1130630D10283EC99E00197F1F700C0000086E253
S11306400E94D10208955C9A27E030E090E05D9822
S1130650AC01022E02C0559547950A94E2F740FF7B
S113066002C05E9A01C05E985D9A2150310978F704
S11306700895CF93C82F81E80E94D1028C2F8F73E5
S11306800E94D102CF910895CF92DF92EF92FF9210
S11306900F931F93CF93DF930F2EF4E0EF2EF5E02B
S11306A0FF2EF02DEC010F2EF4E1CF2EF5E0DF2E1E
S11306B0F02DF7018081F2E0EF0EF11C806B0E94B7
S11306C0D10280E00E94D10280E10E94D10280EE3A
S11306D00E94D1028FEF0E9423038E0100581F4F06
S11306E089910E942303C017D107D1F7E801CE14E2
S11306F0DF04F9F6DF91CF911F910F91FF90EF90F6
S1130700DF90CF90089520E034E0FC01A90111921C
S113071041505040E1F7089530E0F901EE0FFF1F1A
S1130720EE0FFF1FE20FF31FE859FF4F55E0560F7E
S11307309C0170E8479F200D311D11249491D9012B
S1130740A60FB11D9C936F5F31966513F7CF089583
S1130750242F269526952695E62FF0E030E8239F52
S1130760E00DF11D11243197E80FF91F50E0409579
S113077050954770552781E090E002C0880F991F7B
S11307804A95E2F780959081892380830895211109
S113079003C00E94A8030895242F26952695269524
S11307A070E030E8239F600D711D112461507109C0
S11307B0FC01E60FF71F50E0409550954770552710
S11307C081E090E002C0880F991F4A95E2F790817A
S11307D0892B80830895EF92FF920F931F93CF93F9
S11307E0DF93F9012081222389F08F01D42F7C012A
S11307F00F5F1F4FC62F4D2F6C2FC7010E948C0314
S1130800F80121918F01CA5F2111F5CFDF91CF91BA
S11308101F910F91FF90EF9008954F925F926F9206
S11308207F928F929F92AF92BF92CF92DF92EF927C
S11308300F931F93CF93DF936C01D62FC42F122FE6
S1130840622F70E06D1B7109072E000C880B990B49
S11308500E94000820E030E0A9010E941B074B0120
S11308605C0120E030E0A9010E94870781110DC0DE
S11308700C1708F46EC02E2D4C2F6D2FC6010E944C
S1130880C703CF5F0C17B8F764C0602F70E06C1B10
S11308907109072E000C880B990B0E94000820E0B8
S11308A030E0A9010E941B072B013C0120E030E04D
S11308B0A9010E948707882319F01D1770F449C005
S11308C01D1708F446C02E2D4C2F6D2FC6010E9413
S11308D0C703DF5F1D17B8F73CC0A5019401C3012E
S11308E0B2010E948C072B013C01E89477F8812C1B
S11308F0912C54012E2D4C2F6D2FC6010E94C7033D
S1130900A3019201C501B4010E941B074B015C01C4
S113091020E030E040E05FE30E94B0088823B4F0B8
S113092020E030E0A901C301B2010E94B00818160A
S113093014F4CF5F01C0C15020E030E040E85FE331
S1130940C501B4010E941A074B015C01DF5F1D174A
S113095088F6DF91CF911F910F91EF90DF90CF90A8
S1130960BF90AF909F908F907F906F905F904F90CB
S11309700895AF92BF92CF92DF92EF92FF920F93BE
S11309801F93CF93DF935C01C62F142FFE2C862F69
S113099090E06C01C20ED11C8C159D0584F4D42FFB
S11309A0D00FEF2C0D2F2C2F412F6C2FC5010E943F
S11309B00D04CF5F8C2F90E08C159D0594F3DF918F
S11309C0CF911F910F91FF90EF90DF90CF90BF9048
S11309D0AF9008959F92AF92BF92CF92DF92EF9221
S11309E0FF920F931F93CF93DF936C01C62FD42FE5
S11309F0F22EB02E962E920E400FA62EA21A042F7F
S1130A00292D6A2D0E940D044D2F4B19042F292DD9
S1130A106A2DC6010E940D04AB2CAC0E4D2F4F0D58
S1130A20CB19042F2A2D6C2FC6010E940D044D2FC3
S1130A304F19042F2A2D6C2FC6010E940D04DF913B
S1130A40CF911F910F91FF90EF90DF90CF90BF90C7
S1130A50AF909F9008959F92AF92BF92CF92DF92F2
S1130A60EF92FF920F931F93CF93DF936C01162F96
S1130A70F42ED22F902EE02E022F20E00E94EA04C2
S1130A802D2F30E0220F331F83E090E05C01A21A87
S1130A90B30AC0E0CF5F1A141B0484F4D1508C2F26
S1130AA090E08D1B9109880F991F880F991F8A0D5B
S1130AB09B1D5C0125E0A20EB11C05C084E0C89F0B
S1130AC0A00CB11C1124E92C0D2F2C2F4F2D612FBC
S1130AD0C6010E94EA04DC17E8F6DF91CF911F916A
S1130AE00F91FF90EF90DF90CF90BF90AF909F90C9
S1130AF00895ECE7F0E0808180648083EAE7F0E029
S1130B00808180688083808187608083089590914C
S1130B10160580912805890F809316059091150577
S1130B2080912605890F809315050895EF92FF9211
S1130B300F931F93CF93DF9300D0CDB7DEB788E137
S1130B400E94390384E091E00E948303EE24E3943D
S1130B5000E02FE740E060E084E091E00E940D04B3
S1130B600FE320E840E060E884E091E00E940D0497
S1130B702FE74FE360E084E091E00E940D0421E060
S1130B8041E061E084E091E00E940D048091200541
S1130B901F928F9301E215E01F930F93CE010196EC
S1130BA07C019F938F930E94110980911F051F92CE
S1130BB08F931F930F938E010E5F1F4F1F930F93FD
S1130BC00E941109970140E062E384E091E00E94F1
S1130BD0EB03980140E065E484E091E00E94EB03BC
S1130BE0EE24E39400911B0520911C0540911D0502
S1130BF060911E0584E091E00E94B90400911705FC
S1130C00209118054091190560911A0584E091E03E
S1130C100E94B90401E020911405409115056091EA
S1130C20160584E091E00E942B0584E091E00E9487
S1130C3044030FB6F894DEBF0FBECDBF0F900F90E4
S1130C40DF91CF911F910F91FF90EF900895CF9373
S1130C50DF938091160590E060911405A62FB0E013
S1130C6020911E0530E0FC01EA1BFB0B40911C05A2
S1130C70E901C40FD11DEC17FD07D9F4E091150566
S1130C8040911D05E417A8F0F0E070911B0550E0B9
S1130C90470F511D4E175F0764F08091280590910E
S1130CA029059195819591099093290580932805AB
S1130CB030C0AC014A0F5B1F24173507D9F42091CB
S1130CC01505809119052817A8F030E04091170503
S1130CD090E0840F911D8217930764F0809128059A
S1130CE09091290591958195910990932905809377
S1130CF028050FC08091150568130BC08091260547
S1130D00909127059195819591099093270580935A
S1130D102605909115059D01290F311D2F333105AD
S1130D205CF0809126059091270591958195910914
S1130D309093270580932605DF91CF910895579AC4
S1130D405F988BB18BB984B1856084B985B18A7F92
S1130D5085B985B185B90E9479050E94E7028FEAB9
S1130D600E94D10288E10E94390384E091E00E944C
S1130D7044032FEF43ED50E3215040405040E1F74E
S1130D8000C0000084E091E00E9483030E940109F6
S1130D90EC010E9401099E0123703078332334F45E
S1130DA0215031092C6F3F6F2F5F3F4F2F5F3F4F13
S1130DB083709078992324F401978C6F9F6F019628
S1130DC0A901481B590B50932905409328050E94FB
S1130DD00109EC010E9401099E012370307833233C
S1130DE034F4215031092C6F3F6F2F5F3F4F2F5F39
S1130DF03F4F83709078992324F401978C6F9F6FF1
S1130E000196A901481B590B5093270540932605C9
S1130E100E9496050E9487050E9427060E94960557
S1130E205FEF80E792E0515080409040E1F700C0CE
S1130E300000F0CF5058BB27AA270E9432070C9419
S1130E4076080E94680838F00E946F0820F039F490
S1130E509F3F19F426F40C9465080EF4E095E7FB23
S1130E600C945F08E92F0E94870858F3BA176207A9
S1130E7073078407950720F079F4A6F50C94A90864
S1130E800EF4E0950B2EBA2FA02D0B01B9019001A1
S1130E900C01CA01A0011124FF27591B99F0593FE5
S1130EA050F4503E68F11A16F040A22F232F342F2D
S1130EB04427585FF3CF469537952795A795F0407B
S1130EC05395C9F77EF41F16BA0B620B730B840B90
S1130ED0BAF09150A1F0FF0FBB1F661F771F881F48
S1130EE0C2F70EC0BA0F621F731F841F48F48795A0
S1130EF077956795B795F7959E3F08F0B0CF939592
S1130F00880F08F09927EE0F9795879508950E940A
S1130F103B0808F481E008950E94A0070C94760829
S1130F200E946F0858F00E94680840F029F45F3F5F
S1130F3029F00C945F0851110C94AA080C946508CC
S1130F400E94870868F39923B1F3552391F3951B05
S1130F50550BBB27AA2762177307840738F09F5FD6
S1130F605F4F220F331F441FAA1FA9F335D00E2E43
S1130F703AF0E0E832D091505040E695001CCAF7B0
S1130F802BD0FE2F29D0660F771F881FBB1F261773
S1130F9037074807AB07B0E809F0BB0B802DBF014A
S1130FA0FF2793585F4F3AF09E3F510578F00C9419
S1130FB05F080C94AA085F3FE4F3983ED4F3869547
S1130FC077956795B795F7959F5FC9F7880F911D3A
S1130FD09695879597F90895E1E0660F771F881F26
S1130FE0BB1F621773078407BA0720F0621B730BD9
S1130FF0840BBA0BEE1F88F7E0950895E89409C0B6
S113100097FB3EF490958095709561957F4F8F4F37
S11310109F4F9923A9F0F92F96E9BB279395F6954D
S1131020879577956795B795F111F8CFFAF4BB0FCB
S113103011F460FF1BC06F5F7F4F8F4F9F4F16C02F
S1131040882311F096E911C0772321F09EE8872FB9
S1131050762F05C0662371F096E8862F70E060E075
S11310602AF09A95660F771F881FDAF7880F9695EE
S1131070879597F90895990F0008550FAA0BE0E892
S1131080FEEF16161706E807F907C0F01216130646
S1131090E407F50798F0621B730B840B950B39F486
S11310A00A2661F0232B242B252B21F408950A26EC
S11310B009F4A140A6958FEF811D811D089597F92C
S11310C09F6780E870E060E008959FEF80EC0895EA
S11310D000240A9416161706180609060895002413
S11310E00A9412161306140605060895092E03948D
S11310F0000C11F4882352F0BB0F40F4BF2B11F401
S113110060FF04C06F5F7F4F8F4F9F4F089557FD5F
S11311109058440F551F59F05F3F71F04795880F61
S113112097FB991F61F09F3F79F0879508951216F8
S113113013061406551FF2CF4695F1DF08C01616A4
S113114017061806991FF1CF869571056105089455
S11311500895E894BB2766277727CB0197F908956C
S11311600E943B0808F48FEF08958F929F92AF92EC
S1131170BF92CF92DF92EF92FF92CF93DF93EC0175
S1131180688179818A819B81611571058105910549
S113119021F464E279ED8BE597E02DE133EF41E052
S11311A050E00E94C40B49015A019B01AC01A7EA1B
S11311B0B1E40E94E30B6B017C01ACEEB4EFA5013A
S11311C094010E94F10BDC01CB018C0D9D1DAE1D21
S11311D0BF1DB7FF03C00197A109B0488883998355
S11311E0AA83BB839F77DF91CF91FF90EF90DF902D
S11311F0CF90BF90AF909F908F9008950E94B508B4
S1131200089580E091E00E94B5080895A0E0B0E060
S11312108093000190930101A0930201B093030114
S11312200895AEE0B0E0E7E1F9E00C94040C0D8918
S11312301E8986E08C831A8309838FEF9FE79E8340
S11312408D83AE01475E5F4F6F89788DCE01019625
S11312500E943309EF81F885E00FF11F10822E966A
S1131260E4E00C94200CABE0B0E0E9E3F9E00C948A
S1131270F60B6C017B018A01FC01178216828381C3
S113128081FFCCC1CE0101963C01F6019381F701A7
S113129093FD859193FF81917F01882309F4BAC15D
S11312A0853239F493FD859193FF81917F018532D5
S11312B029F4B60190E00E942A0BE7CF912C212C4F
S11312C0312CFFE1F315D8F08B3279F038F4803209
S11312D079F08332A1F4232D20611DC08D3261F099
S11312E0803369F4232D216016C0832D8260382E4B
S11312F0E32DE4603E2E2AC0F32DF8601DC037FCB8
S11313002DC020ED280F2A3040F08E32B9F436FC7F
S113131081C1232D2064322E19C036FE06C08AE016
S1131320989E200D1124922E11C0EAE02E9E200DCD
S11313301124222EF32DF0623F2E08C08C3621F4A6
S1131340832D8068382E02C0883641F4F70193FD5E
S1131350859193FF81917F018111B3CF982F9F7D58
S11313609554933028F40C5F1F4F9FE399830DC06D
S1131370833631F0833771F0833509F059C021C0C9
S1131380F801808189830E5F1F4F88248394912CF8
S1131390530113C02801F2E04F0E511CF801A08044
S11313A0B18036FE03C0692D70E002C06FEF7FEF9D
S11313B0C5010E941F0B4C018201F32DFF773F2EC4
S11313C016C0280122E0420E511CF801A080B18011
S11313D036FE03C0692D70E002C06FEF7FEFC501D8
S11313E00E94140B4C01F32DF0683F2E820133FC54
S11313F01BC0822D90E088169906B0F4B60180E2F5
S113140090E00E942A0B2A94F4CFF50137FC8591D1
S113141037FE81915F01B60190E00E942A0B2110F2
S11314202A9421E0821A91088114910471F7E8C08A
S1131430843611F0893641F5F80137FE07C0608122
S11314407181828193810C5F1F4F08C0608171811B
S1131450072E000C880B990B0E5F1F4FF32DFF76A0
S11314603F2E97FF09C090958095709561957F4FA9
S11314708F4F9F4FF0683F2E2AE030E0A3010E9477
S1131480660B882E861845C0853731F4232D2F7EB0
S1131490B22E2AE030E025C0932D997FB92E8F36E5
S11314A0C1F018F4883579F0B5C0803719F0883761
S11314B021F0B0C0E92FE061BE2EB4FE0DC0FB2DBB
S11314C0F460BF2E09C034FE0AC0292F2660B22E54
S11314D006C028E030E005C020E130E002C020E191
S11314E032E0F801B7FE07C0608171818281938187
S11314F00C5F1F4F06C06081718180E090E00E5F39
S11315001F4FA3010E94660B882E8618FB2DFF77C0
S11315103F2E36FE0DC0232D2E7FA22E891458F4A3
S113152034FE0BC032FC09C0832D8E7EA82E05C06C
S1131530B82CA32C03C0B82C01C0B92CA4FE0FC036
S1131540FE01E80DF11D8081803321F49A2D997EEE
S1131550A92E09C0A2FE06C0B394B39404C08A2D78
S1131560867809F0B394A3FC11C0A0FE06C0B2149F
S113157088F4280C922C9B180EC0B21460F4B601A7
S113158080E290E00E942A0BB394F7CFB21418F4CF
S11315902B1802C0982C212CA4FE10C0B60180E3A5
S11315A090E00E942A0BA2FE17C0A1FC03C088E7AA
S11315B090E002C088E590E0B6010CC08A2D8678E0
S11315C059F0A1FE02C08BE201C080E2A7FC8DE2CB
S11315D0B60190E00E942A0B891438F4B60180E326
S11315E090E00E942A0B9A94F7CF8A94F301E80DB5
S11315F0F11D8081B60190E00E942A0B8110F5CF85
S1131600222009F442CEB60180E290E00E942A0B27
S11316102A94F6CFF6018681978102C08FEF9FEF5F
S11316202B96E2E10C94120CFC0105906150704081
S11316300110D8F7809590958E0F9F1F0895FC0197
S11316406150704001900110D8F7809590958E0FED
S11316509F1F08950F931F93CF93DF93FB01238163
S113166021FD03C08FEF9FEF2CC022FF16C04681DF
S11316705781248135814217530744F4A081B181F5
S11316809D012F5F3F4F318320838C9326813781C7
S11316902F5F3F4F3783268314C08B01EC01FB017E
S11316A00084F185E02D0995892BE1F6D801169681
S11316B08D919C911797019617969C938E931697EC
S11316C0CE01DF91CF911F910F910895FA01AA27BE
S11316D0283051F1203181F1E8946F936E7F6E5F71
S11316E07F4F8F4F9F4FAF4FB1E03ED0B4E03CD01F
S11316F0670F781F891F9A1FA11D680F791F8A1F02
S1131700911DA11D6A0F711D811D911DA11D20D068
S113171009F468943F912AE0269F11243019305D22
S11317203193DEF6CF010895462F4770405D419313
S1131730B3E00FD0C9F7F6CF462F4F70405D4A3360
S113174018F0495D31FD4052419302D0A9F7EACF28
S1131750B4E0A6959795879577956795BA95C9F757
S113176000976105710508959B01AC010A2E06944A
S11317705795479537952795BA95C9F7620F731F03
S1131780841F951FA01D0895052E97FB1EF4009439
S11317900E94DB0B57FD07D00E942D0C07FC03D0E1
S11317A04EF40C94DB0B50954095309521953F4FAA
S11317B04F4F5F4F089590958095709561957F4F39
S11317C08F4F9F4F08950E944F0CA59F900DB49F7B
S11317D0900DA49F800D911D11240895B7FF0C94C2
S11317E0E30B0E94E30B821B930B08952F923F920D
S11317F04F925F926F927F928F929F92AF92BF921D
S1131800CF92DF92EF92FF920F931F93CF93DF93C8
S1131810CDB7DEB7CA1BDB0B0FB6F894DEBF0FBE25
S1131820CDBF09942A88398848885F846E847D8472
S11318308C849B84AA84B984C884DF80EE80FD8074
S11318400C811B81AA81B981CE0FD11D0FB6F894EA
S1131850DEBF0FBECDBFED010895A1E21A2EAA1B73
S1131860BB1BFD010DC0AA1FBB1FEE1FFF1FA2174C
S1131870B307E407F50720F0A21BB30BE40BF50B49
S1131880661F771F881F991F1A9469F760957095D2
S1131890809590959B01AC01BD01CF010895A29F55
S11318A0B001B39FC001A39F700D811D1124911D30
S11318B0B29F700D811D1124911D0895F894FFCFDE
S11318C0010000007F7F7F7F717F717F7F7F7F7F3B
S11318D07E7F7A7B7F7F7F7F7F7F7F7F7F717F7F2C
S11318E0717F7F7F0000606060787F7F7F7F7F6093
S11318F06060606060707078783E3F1F1F0F070162
S113190000000000000000000000000000000000D3
S113191000000000000000000000000000000000C3
S113192000000000000000000000000000000000B3
S113193000000000000000000000000000000000A3
S113194000000000FFFFF0F0F0F0F0F0F0F0F0F035
S1131950F1F3F7FFFFFFF7F1F0F0F0F0F0F0F0F043
S1131960F0F0F0FF000000000000FFFFFFFFFF00A9
S11319700000000000000000000083FFFFFFFFFFE5
S11319803C00010103030303030301010000000001
S11319900101010103030303030000010103030325
S11319A0030303010000000000000101010303031D
S11319B0030300000001010303030303010100000A
S11319C000000000E0FF03000103070F1E3E7FFF3D
S11319D0FFFF9F0F0F8FFFFFFF7F3E1E0F070301C7
S11319E000013FFC000000000000FFFFFFFFFF1CA0
S11319F01C1C1C1C1C1C1C3C78F8F8F8F1EFDFFFC5
S1131A007FFFE1C18181818181C1E1F9FFFF7F1FF6
S1131A10878080C0FFFFFFFFFF78F0E0C0C0C0C038
S1131A20C0E0FFFFFFFF3F070000808080FFFFFF53
S1131A30FFFF3C78F0E0C0C0C0C0E0F0FFFFFF7FD4
S1131A401F0000000080E0F8FCFFFF3F1F1E3CF871
S1131A50F0E0C08000C0E0F0F83C1E1F3FFFFFFC38
S1131A60F8E08000000000000000FFFFFFFFFF001F
S1131A70000000000000000000000000FEFFFFFF67
S1131A80FFBF818080808080808080808080808093
S1131A9080000000FFFFFFFFFF00000000000000C7
S1131AA00000FFFFFFFFFFFF0000000000FFFFFF3B
S1131AB0FFFF00000000000000000000FFFFFFFF28
S1131AC0FF00000000000000000080C0E07030183B
S1131AD00C0C0606060C0C18183060E0C0800000E0
S1131AE0000000000000060E0E3EFEFEFEFEFE7E1E
S1131AF00E0E060000000000000000000080E0F070
S1131B00F8FCFC7E3E1E0E0E0E060E0E0E1C3878E1
S1131B10E6060E1EFEFEFEFEFE0E0E06000000068B
S1131B20060EFEFEFEFEFEFE0E0E06060EFEFEFE79
S1131B30FEFE7E0E0E06000000060E0EFEFEFEFEEB
S1131B40FE1E0E0600000000000000000000000061
S1131B50000000000000000000000101000000007F
S1131B600000000000000000000000000000000170
S1131B70010100000000000001010000000000005D
S1131B80000000000000000001010100000000004E
S1131B90000001010000000000000000000000003F
S1131BA00000000000000000000000000000000031
S1131BB00000000000000000000000000000000021
S1131BC0000000000000FFFFCECECECE001F1F1F7E
S1131BD038381F1F1C383C1F0F00FFFF1C38381FEC
S1131BE01F07071F1F3B3B1F1F07071F1F3838FF17
S1131BF0FFFF000F1F38381CFFFF000F1F1F3B3B68
S1131C001F1F070F1F1F3838FFFFFF000000007859
S1131C10FCFCCECFC7C3181F1F03031F1F181E1FB2
S1131C203F3B1B0118FFFF1818000F1F3B3B3B1FD6
S1131C300F001F1F1C383C1F1F18383F1F07001FB1
S1131C403F3B3B190000F0F07070707000F0F0F052
S1131C500000F0F0000000F0F000F0F0F07070F020
S1131C60E080C0E0F07030707000C0E0F07070E0B0
S1131C70F0F000E0F0707070F0F000C0E0F0703050
S1131C80707000C0E0F07070F0F0F00000000060D0
S1131C9070703070F0E00000EEFEFCE00000707048
S1131CA030F0F0E000E0F0707000E0F07030307080
S1131CB06000F0F0000000F0F00000F0F0F0607060
S1131CC030B0F0E00300020001000000070006004D
S1131CD0050004000320380A02207C0A02200304C1
S1071CE0022569006C
S9030000FC
