:100000000C9434000C9446000C9446000C9446006A
:100010000C9446000C9446000C9446000C94460048
:100020000C9446000C9446000C9446000C94460038
:100030000C9446000C9448000C9446000C94460026
:100040000C9446000C9446000C9446000C94460018
:100050000C9446000C9446000C9446000C94460008
:100060000C9446000C94460011241FBECFEFD8E03C
:10007000DEBFCDBF21E0A0E0B1E001C01D92A33002
:10008000B207E1F70E9492000C949C000C940000CF
:100090001F920F920FB60F9211242F938F939F935D
:1000A000209102018091000190910101222369F0C9
:1000B0002130A9F4019690930101809300018F3FB4
:1000C000934069F4109202010AC0019790930101D4
:1000D00080930001892B19F481E0809302018091C3
:1000E00000019091010190938900809388009F9175
:1000F0008F912F910F900FBE0F901F90189583E84E
:1001000080938000E1E8F0E080818160808310923C
:1001100089001092880080E284B981E080936F00AA
:10012000789408950E947F0083B7816083BF88958B
:0C01300083B78E7F83BFF8CFF894FFCF19
:00000001FF
